:100000000C9434000C943E000C943E000C943E0082
:100010000C943E000C943E000C943E000C943E0068
:100020000C943E000C943E000C943E000C94400056
:100030000C943E000C943E000C943E000C943E0048
:100040000C943E000C943E000C943E000C943E0038
:100050000C943E000C943E000C943E000C943E0028
:100060000C943E000C943E0011241FBECFEFD8E04C
:10007000DEBFCDBF0E9445000C9457000C940000D9
:100080008F9380E189B98F911895549A5C9810925A
:1000900080008CE08093810081E19AE79093890051
:1000A0008093880082E080936F007894FFCFF8946B
:0200B000FFCF80
:00000001FF
